{
  "_format": "hh-sol-artifact-1",
  "contractName": "AssemblyNotes",
  "sourceName": "contracts/AssemblyNotes.sol",
  "abi": [
    {
      "anonymous": false,
      "inputs": [
        {
          "indexed": false,
          "internalType": "uint8",
          "name": "version",
          "type": "uint8"
        }
      ],
      "name": "Initialized",
      "type": "event"
    },
    {
      "anonymous": false,
      "inputs": [
        {
          "indexed": false,
          "internalType": "address",
          "name": "account",
          "type": "address"
        }
      ],
      "name": "Paused",
      "type": "event"
    },
    {
      "anonymous": false,
      "inputs": [
        {
          "indexed": true,
          "internalType": "bytes32",
          "name": "role",
          "type": "bytes32"
        },
        {
          "indexed": true,
          "internalType": "bytes32",
          "name": "previousAdminRole",
          "type": "bytes32"
        },
        {
          "indexed": true,
          "internalType": "bytes32",
          "name": "newAdminRole",
          "type": "bytes32"
        }
      ],
      "name": "RoleAdminChanged",
      "type": "event"
    },
    {
      "anonymous": false,
      "inputs": [
        {
          "indexed": true,
          "internalType": "bytes32",
          "name": "role",
          "type": "bytes32"
        },
        {
          "indexed": true,
          "internalType": "address",
          "name": "account",
          "type": "address"
        },
        {
          "indexed": true,
          "internalType": "address",
          "name": "sender",
          "type": "address"
        }
      ],
      "name": "RoleGranted",
      "type": "event"
    },
    {
      "anonymous": false,
      "inputs": [
        {
          "indexed": true,
          "internalType": "bytes32",
          "name": "role",
          "type": "bytes32"
        },
        {
          "indexed": true,
          "internalType": "address",
          "name": "account",
          "type": "address"
        },
        {
          "indexed": true,
          "internalType": "address",
          "name": "sender",
          "type": "address"
        }
      ],
      "name": "RoleRevoked",
      "type": "event"
    },
    {
      "anonymous": false,
      "inputs": [
        {
          "indexed": false,
          "internalType": "address",
          "name": "account",
          "type": "address"
        }
      ],
      "name": "Unpaused",
      "type": "event"
    },
    {
      "anonymous": false,
      "inputs": [
        {
          "indexed": true,
          "internalType": "address",
          "name": "sender",
          "type": "address"
        },
        {
          "indexed": true,
          "internalType": "uint256",
          "name": "index",
          "type": "uint256"
        },
        {
          "indexed": true,
          "internalType": "uint256",
          "name": "senderIndex",
          "type": "uint256"
        },
        {
          "indexed": false,
          "internalType": "uint256",
          "name": "preBlockNumber",
          "type": "uint256"
        },
        {
          "indexed": false,
          "internalType": "uint256",
          "name": "timestamp",
          "type": "uint256"
        },
        {
          "indexed": false,
          "internalType": "string",
          "name": "data",
          "type": "string"
        }
      ],
      "name": "Write",
      "type": "event"
    },
    {
      "inputs": [],
      "name": "DEFAULT_ADMIN_ROLE",
      "outputs": [
        {
          "internalType": "bytes32",
          "name": "",
          "type": "bytes32"
        }
      ],
      "stateMutability": "view",
      "type": "function"
    },
    {
      "inputs": [],
      "name": "PAUSER_ROLE",
      "outputs": [
        {
          "internalType": "bytes32",
          "name": "",
          "type": "bytes32"
        }
      ],
      "stateMutability": "view",
      "type": "function"
    },
    {
      "inputs": [],
      "name": "WRITER_ROLE",
      "outputs": [
        {
          "internalType": "bytes32",
          "name": "",
          "type": "bytes32"
        }
      ],
      "stateMutability": "view",
      "type": "function"
    },
    {
      "inputs": [],
      "name": "count",
      "outputs": [
        {
          "internalType": "uint256",
          "name": "",
          "type": "uint256"
        }
      ],
      "stateMutability": "view",
      "type": "function"
    },
    {
      "inputs": [
        {
          "internalType": "address",
          "name": "writer",
          "type": "address"
        }
      ],
      "name": "countOf",
      "outputs": [
        {
          "internalType": "uint256",
          "name": "",
          "type": "uint256"
        }
      ],
      "stateMutability": "view",
      "type": "function"
    },
    {
      "inputs": [
        {
          "internalType": "bytes32",
          "name": "role",
          "type": "bytes32"
        }
      ],
      "name": "getRoleAdmin",
      "outputs": [
        {
          "internalType": "bytes32",
          "name": "",
          "type": "bytes32"
        }
      ],
      "stateMutability": "view",
      "type": "function"
    },
    {
      "inputs": [
        {
          "internalType": "bytes32",
          "name": "role",
          "type": "bytes32"
        },
        {
          "internalType": "uint256",
          "name": "index",
          "type": "uint256"
        }
      ],
      "name": "getRoleMember",
      "outputs": [
        {
          "internalType": "address",
          "name": "",
          "type": "address"
        }
      ],
      "stateMutability": "view",
      "type": "function"
    },
    {
      "inputs": [
        {
          "internalType": "bytes32",
          "name": "role",
          "type": "bytes32"
        }
      ],
      "name": "getRoleMemberCount",
      "outputs": [
        {
          "internalType": "uint256",
          "name": "",
          "type": "uint256"
        }
      ],
      "stateMutability": "view",
      "type": "function"
    },
    {
      "inputs": [
        {
          "internalType": "bytes32",
          "name": "role",
          "type": "bytes32"
        },
        {
          "internalType": "address",
          "name": "account",
          "type": "address"
        }
      ],
      "name": "grantRole",
      "outputs": [],
      "stateMutability": "nonpayable",
      "type": "function"
    },
    {
      "inputs": [
        {
          "internalType": "bytes32",
          "name": "role",
          "type": "bytes32"
        },
        {
          "internalType": "address",
          "name": "account",
          "type": "address"
        }
      ],
      "name": "hasRole",
      "outputs": [
        {
          "internalType": "bool",
          "name": "",
          "type": "bool"
        }
      ],
      "stateMutability": "view",
      "type": "function"
    },
    {
      "inputs": [
        {
          "internalType": "string",
          "name": "name_",
          "type": "string"
        },
        {
          "internalType": "string",
          "name": "symbol_",
          "type": "string"
        }
      ],
      "name": "initialize",
      "outputs": [],
      "stateMutability": "nonpayable",
      "type": "function"
    },
    {
      "inputs": [],
      "name": "lastBlockNumber",
      "outputs": [
        {
          "internalType": "uint256",
          "name": "",
          "type": "uint256"
        }
      ],
      "stateMutability": "view",
      "type": "function"
    },
    {
      "inputs": [],
      "name": "name",
      "outputs": [
        {
          "internalType": "string",
          "name": "",
          "type": "string"
        }
      ],
      "stateMutability": "view",
      "type": "function"
    },
    {
      "inputs": [],
      "name": "pause",
      "outputs": [],
      "stateMutability": "nonpayable",
      "type": "function"
    },
    {
      "inputs": [],
      "name": "paused",
      "outputs": [
        {
          "internalType": "bool",
          "name": "",
          "type": "bool"
        }
      ],
      "stateMutability": "view",
      "type": "function"
    },
    {
      "inputs": [
        {
          "internalType": "address",
          "name": "writer",
          "type": "address"
        }
      ],
      "name": "preBlockNumberOf",
      "outputs": [
        {
          "internalType": "uint256",
          "name": "",
          "type": "uint256"
        }
      ],
      "stateMutability": "view",
      "type": "function"
    },
    {
      "inputs": [
        {
          "internalType": "bytes32",
          "name": "role",
          "type": "bytes32"
        },
        {
          "internalType": "address",
          "name": "account",
          "type": "address"
        }
      ],
      "name": "renounceRole",
      "outputs": [],
      "stateMutability": "nonpayable",
      "type": "function"
    },
    {
      "inputs": [
        {
          "internalType": "bytes32",
          "name": "role",
          "type": "bytes32"
        },
        {
          "internalType": "address",
          "name": "account",
          "type": "address"
        }
      ],
      "name": "revokeRole",
      "outputs": [],
      "stateMutability": "nonpayable",
      "type": "function"
    },
    {
      "inputs": [
        {
          "internalType": "bytes4",
          "name": "interfaceId",
          "type": "bytes4"
        }
      ],
      "name": "supportsInterface",
      "outputs": [
        {
          "internalType": "bool",
          "name": "",
          "type": "bool"
        }
      ],
      "stateMutability": "view",
      "type": "function"
    },
    {
      "inputs": [],
      "name": "symbol",
      "outputs": [
        {
          "internalType": "string",
          "name": "",
          "type": "string"
        }
      ],
      "stateMutability": "view",
      "type": "function"
    },
    {
      "inputs": [],
      "name": "unpause",
      "outputs": [],
      "stateMutability": "nonpayable",
      "type": "function"
    },
    {
      "inputs": [
        {
          "internalType": "string",
          "name": "data",
          "type": "string"
        }
      ],
      "name": "write",
      "outputs": [],
      "stateMutability": "nonpayable",
      "type": "function"
    }
  ],
  "bytecode": "0x608060405234801561001057600080fd5b506115aa806100206000396000f3fe608060405234801561001057600080fd5b50600436106101425760003560e01c80638d82e7e6116100b8578063a217fddf1161007c578063a217fddf146102b1578063ca15c873146102b9578063d547741f146102cc578063e63ab1e9146102df578063ebaac771146102f4578063f8977e961461030757610142565b80638d82e7e61461021b5780639010d07c1461024457806391d148541461026f57806395d89b41146102825780639beaab7b1461028a57610142565b80632f2ff15d1161010a5780632f2ff15d146101c557806336568abe146101da5780633f4ba83a146101ed5780634cd88b76146101f55780635c975abb146102085780638456cb591461021357610142565b806301ffc9a71461014757806306661abd1461016f57806306fdde0314610185578063248a9ca31461019a5780632552317c146101bd575b600080fd5b61015a61015536600461121f565b61031a565b60405190151581526020015b60405180910390f35b610177610347565b604051908152602001610166565b61018d610357565b6040516101669190611384565b6101776101a83660046111bb565b60009081526065602052604090206001015490565b60fe54610177565b6101d86101d33660046111d3565b6103e9565b005b6101d86101e83660046111d3565b610413565b6101d8610496565b6101d8610203366004611282565b61051c565b60c95460ff1661015a565b6101d86105e9565b6101776102293660046111a1565b6001600160a01b0316600090815260ff602052604090205490565b6102576102523660046111fe565b61066b565b6040516001600160a01b039091168152602001610166565b61015a61027d3660046111d3565b61068c565b61018d6106b7565b6101777f2b8f168f361ac1393a163ed4adfa899a87be7b7c71645167bdaddd822ae453c881565b610177600081565b6101776102c73660046111bb565b6106c6565b6101d86102da3660046111d3565b6106dd565b61017760008051602061155583398151915281565b6101d8610302366004611247565b610702565b6101776103153660046111a1565b6107a3565b60006001600160e01b03198216635a05180f60e01b148061033f575061033f826107c2565b90505b919050565b600061035260fd5490565b905090565b606060fb8054610366906114ed565b80601f0160208091040260200160405190810160405280929190818152602001828054610392906114ed565b80156103df5780601f106103b4576101008083540402835291602001916103df565b820191906000526020600020905b8154815290600101906020018083116103c257829003601f168201915b5050505050905090565b600082815260656020526040902060010154610404816107f7565b61040e8383610804565b505050565b6001600160a01b03811633146104885760405162461bcd60e51b815260206004820152602f60248201527f416363657373436f6e74726f6c3a2063616e206f6e6c792072656e6f756e636560448201526e103937b632b9903337b91039b2b63360891b60648201526084015b60405180910390fd5b6104928282610826565b5050565b6104ae6000805160206115558339815191523361027d565b6105125760405162461bcd60e51b815260206004820152602f60248201527f417373656d626c794e6f7465733a206d7573742068617665207061757365722060448201526e726f6c6520746f20756e706175736560881b606482015260840161047f565b61051a610848565b565b600054610100900460ff161580801561053c5750600054600160ff909116105b806105565750303b158015610556575060005460ff166001145b6105725760405162461bcd60e51b815260040161047f90611397565b6000805460ff191660011790558015610595576000805461ff0019166101001790555b61059f838361089a565b801561040e576000805461ff0019169055604051600181527f7f26b83ff96e1f2b6a682f133852f6798a09c465da95921460cefb38474024989060200160405180910390a1505050565b6106016000805160206115558339815191523361027d565b6106635760405162461bcd60e51b815260206004820152602d60248201527f417373656d626c794e6f7465733a206d7573742068617665207061757365722060448201526c726f6c6520746f20706175736560981b606482015260840161047f565b61051a61092d565b6000828152609760205260408120610683908361096a565b90505b92915050565b60009182526065602090815260408084206001600160a01b0393909316845291905290205460ff1690565b606060fc8054610366906114ed565b600081815260976020526040812061033f90610976565b6000828152606560205260409020600101546106f8816107f7565b61040e8383610826565b61070a610980565b336000908152610100602052604090205460fd5433600081815260ff6020526040908190205490517f010cce8a9e62bb2b185ed0b6a9f0b36e03697db6538494e5a56d66150e4b7e28916107619142908890611430565b60405180910390a461077760fd80546001019055565b50336000908152610100602090815260408083208054600101905560ff9091529020439081905560fe55565b6001600160a01b0381166000908152610100602052604081205461033f565b60006001600160e01b03198216637965db0b60e01b148061033f57506301ffc9a760e01b6001600160e01b031983161461033f565b61080181336109c6565b50565b61080e8282610a1f565b600082815260976020526040902061040e9082610aa5565b6108308282610aba565b600082815260976020526040902061040e9082610b21565b610850610b36565b60c9805460ff191690557f5db9ee0a495bf2e6ff9c91a7834c1ba4fdd244a5e8aa4e537bd38aeae4b073aa335b6040516001600160a01b03909116815260200160405180910390a1565b600054610100900460ff16158080156108ba5750600054600160ff909116105b806108d45750303b1580156108d4575060005460ff166001145b6108f05760405162461bcd60e51b815260040161047f90611397565b6000805460ff191660011790558015610913576000805461ff0019166101001790555b61091b610b7f565b610923610bb2565b61059f8383610bd9565b610935610980565b60c9805460ff191660011790557f62e78cea01bee320cd4e420270b5ea74000d11b0c9f74754ebdbfc544b05a25861087d3390565b60006106838383610cc8565b600061033f825490565b60c95460ff161561051a5760405162461bcd60e51b815260206004820152601060248201526f14185d5cd8589b194e881c185d5cd95960821b604482015260640161047f565b6109d0828261068c565b610492576109dd81610d00565b6109e8836020610d12565b6040516020016109f992919061130f565b60408051601f198184030181529082905262461bcd60e51b825261047f91600401611384565b610a29828261068c565b6104925760008281526065602090815260408083206001600160a01b03851684529091529020805460ff19166001179055610a613390565b6001600160a01b0316816001600160a01b0316837f2f8788117e7eff1d82e926ec794901d17c78024a50270940304540a733656f0d60405160405180910390a45050565b6000610683836001600160a01b038416610ef4565b610ac4828261068c565b156104925760008281526065602090815260408083206001600160a01b0385168085529252808320805460ff1916905551339285917ff6391f5c32d9c69d2a47ea670b442974b53935d1edc7fd64eb21e047a839171b9190a45050565b6000610683836001600160a01b038416610f43565b60c95460ff1661051a5760405162461bcd60e51b815260206004820152601460248201527314185d5cd8589b194e881b9bdd081c185d5cd95960621b604482015260640161047f565b600054610100900460ff16610ba65760405162461bcd60e51b815260040161047f906113e5565b60c9805460ff19169055565b600054610100900460ff1661051a5760405162461bcd60e51b815260040161047f906113e5565b600054610100900460ff1615808015610bf95750600054600160ff909116105b80610c135750303b158015610c13575060005460ff166001145b610c2f5760405162461bcd60e51b815260040161047f90611397565b6000805460ff191660011790558015610c52576000805461ff0019166101001790555b8251610c659060fb90602086019061106a565b508151610c799060fc90602085019061106a565b50610c866000335b611060565b610cb07f2b8f168f361ac1393a163ed4adfa899a87be7b7c71645167bdaddd822ae453c833610c81565b61059f60008051602061155583398151915233610c81565b6000826000018281548110610ced57634e487b7160e01b600052603260045260246000fd5b9060005260206000200154905092915050565b606061033f6001600160a01b03831660145b60606000610d21836002611470565b610d2c906002611458565b67ffffffffffffffff811115610d5257634e487b7160e01b600052604160045260246000fd5b6040519080825280601f01601f191660200182016040528015610d7c576020820181803683370190505b509050600360fc1b81600081518110610da557634e487b7160e01b600052603260045260246000fd5b60200101906001600160f81b031916908160001a905350600f60fb1b81600181518110610de257634e487b7160e01b600052603260045260246000fd5b60200101906001600160f81b031916908160001a9053506000610e06846002611470565b610e11906001611458565b90505b6001811115610ea5576f181899199a1a9b1b9c1cb0b131b232b360811b85600f1660108110610e5357634e487b7160e01b600052603260045260246000fd5b1a60f81b828281518110610e7757634e487b7160e01b600052603260045260246000fd5b60200101906001600160f81b031916908160001a90535060049490941c93610e9e816114d6565b9050610e14565b5083156106835760405162461bcd60e51b815260206004820181905260248201527f537472696e67733a20686578206c656e67746820696e73756666696369656e74604482015260640161047f565b6000818152600183016020526040812054610f3b57508154600181810184556000848152602080822090930184905584548482528286019093526040902091909155610686565b506000610686565b60008181526001830160205260408120548015611056576000610f6760018361148f565b8554909150600090610f7b9060019061148f565b9050818114610ffc576000866000018281548110610fa957634e487b7160e01b600052603260045260246000fd5b9060005260206000200154905080876000018481548110610fda57634e487b7160e01b600052603260045260246000fd5b6000918252602080832090910192909255918252600188019052604090208390555b855486908061101b57634e487b7160e01b600052603160045260246000fd5b600190038181906000526020600020016000905590558560010160008681526020019081526020016000206000905560019350505050610686565b6000915050610686565b6104928282610804565b828054611076906114ed565b90600052602060002090601f01602090048101928261109857600085556110de565b82601f106110b157805160ff19168380011785556110de565b828001600101855582156110de579182015b828111156110de5782518255916020019190600101906110c3565b506110ea9291506110ee565b5090565b5b808211156110ea57600081556001016110ef565b80356001600160a01b038116811461034257600080fd5b600082601f83011261112a578081fd5b813567ffffffffffffffff808211156111455761114561153e565b604051601f8301601f19908116603f0116810190828211818310171561116d5761116d61153e565b81604052838152866020858801011115611185578485fd5b8360208701602083013792830160200193909352509392505050565b6000602082840312156111b2578081fd5b61068382611103565b6000602082840312156111cc578081fd5b5035919050565b600080604083850312156111e5578081fd5b823591506111f560208401611103565b90509250929050565b60008060408385031215611210578182fd5b50508035926020909101359150565b600060208284031215611230578081fd5b81356001600160e01b031981168114610683578182fd5b600060208284031215611258578081fd5b813567ffffffffffffffff81111561126e578182fd5b61127a8482850161111a565b949350505050565b60008060408385031215611294578182fd5b823567ffffffffffffffff808211156112ab578384fd5b6112b78683870161111a565b935060208501359150808211156112cc578283fd5b506112d98582860161111a565b9150509250929050565b600081518084526112fb8160208601602086016114a6565b601f01601f19169290920160200192915050565b60007f416363657373436f6e74726f6c3a206163636f756e7420000000000000000000825283516113478160178501602088016114a6565b7001034b99036b4b9b9b4b733903937b6329607d1b60179184019182015283516113788160288401602088016114a6565b01602801949350505050565b60006020825261068360208301846112e3565b6020808252602e908201527f496e697469616c697a61626c653a20636f6e747261637420697320616c72656160408201526d191e481a5b9a5d1a585b1a5e995960921b606082015260800190565b6020808252602b908201527f496e697469616c697a61626c653a20636f6e7472616374206973206e6f74206960408201526a6e697469616c697a696e6760a81b606082015260800190565b60008482528360208301526060604083015261144f60608301846112e3565b95945050505050565b6000821982111561146b5761146b611528565b500190565b600081600019048311821515161561148a5761148a611528565b500290565b6000828210156114a1576114a1611528565b500390565b60005b838110156114c15781810151838201526020016114a9565b838111156114d0576000848401525b50505050565b6000816114e5576114e5611528565b506000190190565b60028104600182168061150157607f821691505b6020821081141561152257634e487b7160e01b600052602260045260246000fd5b50919050565b634e487b7160e01b600052601160045260246000fd5b634e487b7160e01b600052604160045260246000fdfe65d7a28e3265b37a6474929f336521b332c1681b933f6cb9f3376673440d862aa26469706673582212208705d2e7cffed35b5e0822557694bea1da24a715f6772a5eadb08b720a0bb8c564736f6c63430008020033",
  "linkReferences": {},
  "deployedLinkReferences": {}
}